{
	"contracts/sjgtoken.sol": {
		"first": {
			"abi": [
				{
					"inputs": [
						{
							"internalType": "string",
							"name": "_name",
							"type": "string"
						}
					],
					"name": "addNumber",
					"outputs": [],
					"stateMutability": "nonpayable",
					"type": "function"
				},
				{
					"inputs": [
						{
							"internalType": "string",
							"name": "_name",
							"type": "string"
						}
					],
					"name": "viewNumber",
					"outputs": [
						{
							"internalType": "address",
							"name": "",
							"type": "address"
						}
					],
					"stateMutability": "view",
					"type": "function"
				}
			],
			"devdoc": {
				"kind": "dev",
				"methods": {},
				"version": 1
			},
			"evm": {
				"assembly": "    /* \"contracts/sjgtoken.sol\":65:574  contract first {... */\n  mstore(0x40, 0x80)\n  callvalue\n  dup1\n  iszero\n  tag_1\n  jumpi\n  0x00\n  dup1\n  revert\ntag_1:\n  pop\n  dataSize(sub_0)\n  dup1\n  dataOffset(sub_0)\n  0x00\n  codecopy\n  0x00\n  return\nstop\n\nsub_0: assembly {\n        /* \"contracts/sjgtoken.sol\":65:574  contract first {... */\n      mstore(0x40, 0x80)\n      callvalue\n      dup1\n      iszero\n      tag_1\n      jumpi\n      0x00\n      dup1\n      revert\n    tag_1:\n      pop\n      jumpi(tag_2, lt(calldatasize, 0x04))\n      shr(0xe0, calldataload(0x00))\n      dup1\n      0x6283a82d\n      eq\n      tag_3\n      jumpi\n      dup1\n      0xcb30e076\n      eq\n      tag_4\n      jumpi\n    tag_2:\n      0x00\n      dup1\n      revert\n        /* \"contracts/sjgtoken.sol\":362:569  function viewNumber(string memory _name) public view returns(address) {... */\n    tag_3:\n      tag_5\n      0x04\n      dup1\n      calldatasize\n      sub\n      dup2\n      add\n      swap1\n      tag_6\n      swap2\n      swap1\n      tag_7\n      jump\t// in\n    tag_6:\n      tag_8\n      jump\t// in\n    tag_5:\n      mload(0x40)\n      tag_9\n      swap2\n      swap1\n      tag_10\n      jump\t// in\n    tag_9:\n      mload(0x40)\n      dup1\n      swap2\n      sub\n      swap1\n      return\n        /* \"contracts/sjgtoken.sol\":134:354  function addNumber(string memory _name) public{... */\n    tag_4:\n      tag_11\n      0x04\n      dup1\n      calldatasize\n      sub\n      dup2\n      add\n      swap1\n      tag_12\n      swap2\n      swap1\n      tag_7\n      jump\t// in\n    tag_12:\n      tag_13\n      jump\t// in\n    tag_11:\n      stop\n        /* \"contracts/sjgtoken.sol\":362:569  function viewNumber(string memory _name) public view returns(address) {... */\n    tag_8:\n        /* \"contracts/sjgtoken.sol\":423:430  address */\n      0x00\n        /* \"contracts/sjgtoken.sol\":517:518  0 */\n      dup1\n        /* \"contracts/sjgtoken.sol\":495:519  aaa[_name] != address(0) */\n      0xffffffffffffffffffffffffffffffffffffffff\n      and\n        /* \"contracts/sjgtoken.sol\":495:498  aaa */\n      0x00\n        /* \"contracts/sjgtoken.sol\":499:504  _name */\n      dup4\n        /* \"contracts/sjgtoken.sol\":495:505  aaa[_name] */\n      mload(0x40)\n      tag_15\n      swap2\n      swap1\n      tag_16\n      jump\t// in\n    tag_15:\n      swap1\n      dup2\n      mstore\n      0x20\n      add\n      mload(0x40)\n      dup1\n      swap2\n      sub\n      swap1\n      keccak256\n      0x00\n      swap1\n      sload\n      swap1\n      0x0100\n      exp\n      swap1\n      div\n      0xffffffffffffffffffffffffffffffffffffffff\n      and\n        /* \"contracts/sjgtoken.sol\":495:519  aaa[_name] != address(0) */\n      0xffffffffffffffffffffffffffffffffffffffff\n      and\n      sub\n        /* \"contracts/sjgtoken.sol\":487:533  require(aaa[_name] != address(0), \"Not found\") */\n      tag_17\n      jumpi\n      mload(0x40)\n      0x08c379a000000000000000000000000000000000000000000000000000000000\n      dup2\n      mstore\n      0x04\n      add\n      tag_18\n      swap1\n      tag_19\n      jump\t// in\n    tag_18:\n      mload(0x40)\n      dup1\n      swap2\n      sub\n      swap1\n      revert\n    tag_17:\n        /* \"contracts/sjgtoken.sol\":551:554  aaa */\n      0x00\n        /* \"contracts/sjgtoken.sol\":555:560  _name */\n      dup3\n        /* \"contracts/sjgtoken.sol\":551:561  aaa[_name] */\n      mload(0x40)\n      tag_20\n      swap2\n      swap1\n      tag_16\n      jump\t// in\n    tag_20:\n      swap1\n      dup2\n      mstore\n      0x20\n      add\n      mload(0x40)\n      dup1\n      swap2\n      sub\n      swap1\n      keccak256\n      0x00\n      swap1\n      sload\n      swap1\n      0x0100\n      exp\n      swap1\n      div\n      0xffffffffffffffffffffffffffffffffffffffff\n      and\n        /* \"contracts/sjgtoken.sol\":544:561  return aaa[_name] */\n      swap1\n      pop\n        /* \"contracts/sjgtoken.sol\":362:569  function viewNumber(string memory _name) public view returns(address) {... */\n      swap2\n      swap1\n      pop\n      jump\t// out\n        /* \"contracts/sjgtoken.sol\":134:354  function addNumber(string memory _name) public{... */\n    tag_13:\n        /* \"contracts/sjgtoken.sol\":295:296  0 */\n      0x00\n        /* \"contracts/sjgtoken.sol\":273:297  aaa[_name] == address(0) */\n      0xffffffffffffffffffffffffffffffffffffffff\n      and\n        /* \"contracts/sjgtoken.sol\":273:276  aaa */\n      0x00\n        /* \"contracts/sjgtoken.sol\":277:282  _name */\n      dup3\n        /* \"contracts/sjgtoken.sol\":273:283  aaa[_name] */\n      mload(0x40)\n      tag_22\n      swap2\n      swap1\n      tag_16\n      jump\t// in\n    tag_22:\n      swap1\n      dup2\n      mstore\n      0x20\n      add\n      mload(0x40)\n      dup1\n      swap2\n      sub\n      swap1\n      keccak256\n      0x00\n      swap1\n      sload\n      swap1\n      0x0100\n      exp\n      swap1\n      div\n      0xffffffffffffffffffffffffffffffffffffffff\n      and\n        /* \"contracts/sjgtoken.sol\":273:297  aaa[_name] == address(0) */\n      0xffffffffffffffffffffffffffffffffffffffff\n      and\n      eq\n        /* \"contracts/sjgtoken.sol\":265:312  require(aaa[_name] == address(0), \"alreay key\") */\n      tag_23\n      jumpi\n      mload(0x40)\n      0x08c379a000000000000000000000000000000000000000000000000000000000\n      dup2\n      mstore\n      0x04\n      add\n      tag_24\n      swap1\n      tag_25\n      jump\t// in\n    tag_24:\n      mload(0x40)\n      dup1\n      swap2\n      sub\n      swap1\n      revert\n    tag_23:\n        /* \"contracts/sjgtoken.sol\":336:346  msg.sender */\n      caller\n        /* \"contracts/sjgtoken.sol\":323:326  aaa */\n      0x00\n        /* \"contracts/sjgtoken.sol\":327:332  _name */\n      dup3\n        /* \"contracts/sjgtoken.sol\":323:333  aaa[_name] */\n      mload(0x40)\n      tag_26\n      swap2\n      swap1\n      tag_16\n      jump\t// in\n    tag_26:\n      swap1\n      dup2\n      mstore\n      0x20\n      add\n      mload(0x40)\n      dup1\n      swap2\n      sub\n      swap1\n      keccak256\n      0x00\n        /* \"contracts/sjgtoken.sol\":323:346  aaa[_name] = msg.sender */\n      0x0100\n      exp\n      dup2\n      sload\n      dup2\n      0xffffffffffffffffffffffffffffffffffffffff\n      mul\n      not\n      and\n      swap1\n      dup4\n      0xffffffffffffffffffffffffffffffffffffffff\n      and\n      mul\n      or\n      swap1\n      sstore\n      pop\n        /* \"contracts/sjgtoken.sol\":134:354  function addNumber(string memory _name) public{... */\n      pop\n      jump\t// out\n        /* \"#utility.yul\":7:82   */\n    tag_27:\n        /* \"#utility.yul\":40:46   */\n      0x00\n        /* \"#utility.yul\":73:75   */\n      0x40\n        /* \"#utility.yul\":67:76   */\n      mload\n        /* \"#utility.yul\":57:76   */\n      swap1\n      pop\n        /* \"#utility.yul\":7:82   */\n      swap1\n      jump\t// out\n        /* \"#utility.yul\":88:205   */\n    tag_28:\n        /* \"#utility.yul\":197:198   */\n      0x00\n        /* \"#utility.yul\":194:195   */\n      dup1\n        /* \"#utility.yul\":187:199   */\n      revert\n        /* \"#utility.yul\":211:328   */\n    tag_29:\n        /* \"#utility.yul\":320:321   */\n      0x00\n        /* \"#utility.yul\":317:318   */\n      dup1\n        /* \"#utility.yul\":310:322   */\n      revert\n        /* \"#utility.yul\":334:451   */\n    tag_30:\n        /* \"#utility.yul\":443:444   */\n      0x00\n        /* \"#utility.yul\":440:441   */\n      dup1\n        /* \"#utility.yul\":433:445   */\n      revert\n        /* \"#utility.yul\":457:574   */\n    tag_31:\n        /* \"#utility.yul\":566:567   */\n      0x00\n        /* \"#utility.yul\":563:564   */\n      dup1\n        /* \"#utility.yul\":556:568   */\n      revert\n        /* \"#utility.yul\":580:682   */\n    tag_32:\n        /* \"#utility.yul\":621:627   */\n      0x00\n        /* \"#utility.yul\":672:674   */\n      0x1f\n        /* \"#utility.yul\":668:675   */\n      not\n        /* \"#utility.yul\":663:665   */\n      0x1f\n        /* \"#utility.yul\":656:661   */\n      dup4\n        /* \"#utility.yul\":652:666   */\n      add\n        /* \"#utility.yul\":648:676   */\n      and\n        /* \"#utility.yul\":638:676   */\n      swap1\n      pop\n        /* \"#utility.yul\":580:682   */\n      swap2\n      swap1\n      pop\n      jump\t// out\n        /* \"#utility.yul\":688:868   */\n    tag_33:\n        /* \"#utility.yul\":736:813   */\n      0x4e487b7100000000000000000000000000000000000000000000000000000000\n        /* \"#utility.yul\":733:734   */\n      0x00\n        /* \"#utility.yul\":726:814   */\n      mstore\n        /* \"#utility.yul\":833:837   */\n      0x41\n        /* \"#utility.yul\":830:831   */\n      0x04\n        /* \"#utility.yul\":823:838   */\n      mstore\n        /* \"#utility.yul\":857:861   */\n      0x24\n        /* \"#utility.yul\":854:855   */\n      0x00\n        /* \"#utility.yul\":847:862   */\n      revert\n        /* \"#utility.yul\":874:1155   */\n    tag_34:\n        /* \"#utility.yul\":957:984   */\n      tag_61\n        /* \"#utility.yul\":979:983   */\n      dup3\n        /* \"#utility.yul\":957:984   */\n      tag_32\n      jump\t// in\n    tag_61:\n        /* \"#utility.yul\":949:955   */\n      dup2\n        /* \"#utility.yul\":945:985   */\n      add\n        /* \"#utility.yul\":1087:1093   */\n      dup2\n        /* \"#utility.yul\":1075:1085   */\n      dup2\n        /* \"#utility.yul\":1072:1094   */\n      lt\n        /* \"#utility.yul\":1051:1069   */\n      0xffffffffffffffff\n        /* \"#utility.yul\":1039:1049   */\n      dup3\n        /* \"#utility.yul\":1036:1070   */\n      gt\n        /* \"#utility.yul\":1033:1095   */\n      or\n        /* \"#utility.yul\":1030:1118   */\n      iszero\n      tag_62\n      jumpi\n        /* \"#utility.yul\":1098:1116   */\n      tag_63\n      tag_33\n      jump\t// in\n    tag_63:\n        /* \"#utility.yul\":1030:1118   */\n    tag_62:\n        /* \"#utility.yul\":1138:1148   */\n      dup1\n        /* \"#utility.yul\":1134:1136   */\n      0x40\n        /* \"#utility.yul\":1127:1149   */\n      mstore\n        /* \"#utility.yul\":917:1155   */\n      pop\n        /* \"#utility.yul\":874:1155   */\n      pop\n      pop\n      jump\t// out\n        /* \"#utility.yul\":1161:1290   */\n    tag_35:\n        /* \"#utility.yul\":1195:1201   */\n      0x00\n        /* \"#utility.yul\":1222:1242   */\n      tag_65\n      tag_27\n      jump\t// in\n    tag_65:\n        /* \"#utility.yul\":1212:1242   */\n      swap1\n      pop\n        /* \"#utility.yul\":1251:1284   */\n      tag_66\n        /* \"#utility.yul\":1279:1283   */\n      dup3\n        /* \"#utility.yul\":1271:1277   */\n      dup3\n        /* \"#utility.yul\":1251:1284   */\n      tag_34\n      jump\t// in\n    tag_66:\n        /* \"#utility.yul\":1161:1290   */\n      swap2\n      swap1\n      pop\n      jump\t// out\n        /* \"#utility.yul\":1296:1604   */\n    tag_36:\n        /* \"#utility.yul\":1358:1362   */\n      0x00\n        /* \"#utility.yul\":1448:1466   */\n      0xffffffffffffffff\n        /* \"#utility.yul\":1440:1446   */\n      dup3\n        /* \"#utility.yul\":1437:1467   */\n      gt\n        /* \"#utility.yul\":1434:1490   */\n      iszero\n      tag_68\n      jumpi\n        /* \"#utility.yul\":1470:1488   */\n      tag_69\n      tag_33\n      jump\t// in\n    tag_69:\n        /* \"#utility.yul\":1434:1490   */\n    tag_68:\n        /* \"#utility.yul\":1508:1537   */\n      tag_70\n        /* \"#utility.yul\":1530:1536   */\n      dup3\n        /* \"#utility.yul\":1508:1537   */\n      tag_32\n      jump\t// in\n    tag_70:\n        /* \"#utility.yul\":1500:1537   */\n      swap1\n      pop\n        /* \"#utility.yul\":1592:1596   */\n      0x20\n        /* \"#utility.yul\":1586:1590   */\n      dup2\n        /* \"#utility.yul\":1582:1597   */\n      add\n        /* \"#utility.yul\":1574:1597   */\n      swap1\n      pop\n        /* \"#utility.yul\":1296:1604   */\n      swap2\n      swap1\n      pop\n      jump\t// out\n        /* \"#utility.yul\":1610:1756   */\n    tag_37:\n        /* \"#utility.yul\":1707:1713   */\n      dup3\n        /* \"#utility.yul\":1702:1705   */\n      dup2\n        /* \"#utility.yul\":1697:1700   */\n      dup4\n        /* \"#utility.yul\":1684:1714   */\n      calldatacopy\n        /* \"#utility.yul\":1748:1749   */\n      0x00\n        /* \"#utility.yul\":1739:1745   */\n      dup4\n        /* \"#utility.yul\":1734:1737   */\n      dup4\n        /* \"#utility.yul\":1730:1746   */\n      add\n        /* \"#utility.yul\":1723:1750   */\n      mstore\n        /* \"#utility.yul\":1610:1756   */\n      pop\n      pop\n      pop\n      jump\t// out\n        /* \"#utility.yul\":1762:2187   */\n    tag_38:\n        /* \"#utility.yul\":1840:1845   */\n      0x00\n        /* \"#utility.yul\":1865:1931   */\n      tag_73\n        /* \"#utility.yul\":1881:1930   */\n      tag_74\n        /* \"#utility.yul\":1923:1929   */\n      dup5\n        /* \"#utility.yul\":1881:1930   */\n      tag_36\n      jump\t// in\n    tag_74:\n        /* \"#utility.yul\":1865:1931   */\n      tag_35\n      jump\t// in\n    tag_73:\n        /* \"#utility.yul\":1856:1931   */\n      swap1\n      pop\n        /* \"#utility.yul\":1954:1960   */\n      dup3\n        /* \"#utility.yul\":1947:1952   */\n      dup2\n        /* \"#utility.yul\":1940:1961   */\n      mstore\n        /* \"#utility.yul\":1992:1996   */\n      0x20\n        /* \"#utility.yul\":1985:1990   */\n      dup2\n        /* \"#utility.yul\":1981:1997   */\n      add\n        /* \"#utility.yul\":2030:2033   */\n      dup5\n        /* \"#utility.yul\":2021:2027   */\n      dup5\n        /* \"#utility.yul\":2016:2019   */\n      dup5\n        /* \"#utility.yul\":2012:2028   */\n      add\n        /* \"#utility.yul\":2009:2034   */\n      gt\n        /* \"#utility.yul\":2006:2118   */\n      iszero\n      tag_75\n      jumpi\n        /* \"#utility.yul\":2037:2116   */\n      tag_76\n      tag_31\n      jump\t// in\n    tag_76:\n        /* \"#utility.yul\":2006:2118   */\n    tag_75:\n        /* \"#utility.yul\":2127:2181   */\n      tag_77\n        /* \"#utility.yul\":2174:2180   */\n      dup5\n        /* \"#utility.yul\":2169:2172   */\n      dup3\n        /* \"#utility.yul\":2164:2167   */\n      dup6\n        /* \"#utility.yul\":2127:2181   */\n      tag_37\n      jump\t// in\n    tag_77:\n        /* \"#utility.yul\":1846:2187   */\n      pop\n        /* \"#utility.yul\":1762:2187   */\n      swap4\n      swap3\n      pop\n      pop\n      pop\n      jump\t// out\n        /* \"#utility.yul\":2207:2547   */\n    tag_39:\n        /* \"#utility.yul\":2263:2268   */\n      0x00\n        /* \"#utility.yul\":2312:2315   */\n      dup3\n        /* \"#utility.yul\":2305:2309   */\n      0x1f\n        /* \"#utility.yul\":2297:2303   */\n      dup4\n        /* \"#utility.yul\":2293:2310   */\n      add\n        /* \"#utility.yul\":2289:2316   */\n      slt\n        /* \"#utility.yul\":2279:2401   */\n      tag_79\n      jumpi\n        /* \"#utility.yul\":2320:2399   */\n      tag_80\n      tag_30\n      jump\t// in\n    tag_80:\n        /* \"#utility.yul\":2279:2401   */\n    tag_79:\n        /* \"#utility.yul\":2437:2443   */\n      dup2\n        /* \"#utility.yul\":2424:2444   */\n      calldataload\n        /* \"#utility.yul\":2462:2541   */\n      tag_81\n        /* \"#utility.yul\":2537:2540   */\n      dup5\n        /* \"#utility.yul\":2529:2535   */\n      dup3\n        /* \"#utility.yul\":2522:2526   */\n      0x20\n        /* \"#utility.yul\":2514:2520   */\n      dup7\n        /* \"#utility.yul\":2510:2527   */\n      add\n        /* \"#utility.yul\":2462:2541   */\n      tag_38\n      jump\t// in\n    tag_81:\n        /* \"#utility.yul\":2453:2541   */\n      swap2\n      pop\n        /* \"#utility.yul\":2269:2547   */\n      pop\n        /* \"#utility.yul\":2207:2547   */\n      swap3\n      swap2\n      pop\n      pop\n      jump\t// out\n        /* \"#utility.yul\":2553:3062   */\n    tag_7:\n        /* \"#utility.yul\":2622:2628   */\n      0x00\n        /* \"#utility.yul\":2671:2673   */\n      0x20\n        /* \"#utility.yul\":2659:2668   */\n      dup3\n        /* \"#utility.yul\":2650:2657   */\n      dup5\n        /* \"#utility.yul\":2646:2669   */\n      sub\n        /* \"#utility.yul\":2642:2674   */\n      slt\n        /* \"#utility.yul\":2639:2758   */\n      iszero\n      tag_83\n      jumpi\n        /* \"#utility.yul\":2677:2756   */\n      tag_84\n      tag_28\n      jump\t// in\n    tag_84:\n        /* \"#utility.yul\":2639:2758   */\n    tag_83:\n        /* \"#utility.yul\":2825:2826   */\n      0x00\n        /* \"#utility.yul\":2814:2823   */\n      dup3\n        /* \"#utility.yul\":2810:2827   */\n      add\n        /* \"#utility.yul\":2797:2828   */\n      calldataload\n        /* \"#utility.yul\":2855:2873   */\n      0xffffffffffffffff\n        /* \"#utility.yul\":2847:2853   */\n      dup2\n        /* \"#utility.yul\":2844:2874   */\n      gt\n        /* \"#utility.yul\":2841:2958   */\n      iszero\n      tag_85\n      jumpi\n        /* \"#utility.yul\":2877:2956   */\n      tag_86\n      tag_29\n      jump\t// in\n    tag_86:\n        /* \"#utility.yul\":2841:2958   */\n    tag_85:\n        /* \"#utility.yul\":2982:3045   */\n      tag_87\n        /* \"#utility.yul\":3037:3044   */\n      dup5\n        /* \"#utility.yul\":3028:3034   */\n      dup3\n        /* \"#utility.yul\":3017:3026   */\n      dup6\n        /* \"#utility.yul\":3013:3035   */\n      add\n        /* \"#utility.yul\":2982:3045   */\n      tag_39\n      jump\t// in\n    tag_87:\n        /* \"#utility.yul\":2972:3045   */\n      swap2\n      pop\n        /* \"#utility.yul\":2768:3055   */\n      pop\n        /* \"#utility.yul\":2553:3062   */\n      swap3\n      swap2\n      pop\n      pop\n      jump\t// out\n        /* \"#utility.yul\":3068:3194   */\n    tag_40:\n        /* \"#utility.yul\":3105:3112   */\n      0x00\n        /* \"#utility.yul\":3145:3187   */\n      0xffffffffffffffffffffffffffffffffffffffff\n        /* \"#utility.yul\":3138:3143   */\n      dup3\n        /* \"#utility.yul\":3134:3188   */\n      and\n        /* \"#utility.yul\":3123:3188   */\n      swap1\n      pop\n        /* \"#utility.yul\":3068:3194   */\n      swap2\n      swap1\n      pop\n      jump\t// out\n        /* \"#utility.yul\":3200:3296   */\n    tag_41:\n        /* \"#utility.yul\":3237:3244   */\n      0x00\n        /* \"#utility.yul\":3266:3290   */\n      tag_90\n        /* \"#utility.yul\":3284:3289   */\n      dup3\n        /* \"#utility.yul\":3266:3290   */\n      tag_40\n      jump\t// in\n    tag_90:\n        /* \"#utility.yul\":3255:3290   */\n      swap1\n      pop\n        /* \"#utility.yul\":3200:3296   */\n      swap2\n      swap1\n      pop\n      jump\t// out\n        /* \"#utility.yul\":3302:3420   */\n    tag_42:\n        /* \"#utility.yul\":3389:3413   */\n      tag_92\n        /* \"#utility.yul\":3407:3412   */\n      dup2\n        /* \"#utility.yul\":3389:3413   */\n      tag_41\n      jump\t// in\n    tag_92:\n        /* \"#utility.yul\":3384:3387   */\n      dup3\n        /* \"#utility.yul\":3377:3414   */\n      mstore\n        /* \"#utility.yul\":3302:3420   */\n      pop\n      pop\n      jump\t// out\n        /* \"#utility.yul\":3426:3648   */\n    tag_10:\n        /* \"#utility.yul\":3519:3523   */\n      0x00\n        /* \"#utility.yul\":3557:3559   */\n      0x20\n        /* \"#utility.yul\":3546:3555   */\n      dup3\n        /* \"#utility.yul\":3542:3560   */\n      add\n        /* \"#utility.yul\":3534:3560   */\n      swap1\n      pop\n        /* \"#utility.yul\":3570:3641   */\n      tag_94\n        /* \"#utility.yul\":3638:3639   */\n      0x00\n        /* \"#utility.yul\":3627:3636   */\n      dup4\n        /* \"#utility.yul\":3623:3640   */\n      add\n        /* \"#utility.yul\":3614:3620   */\n      dup5\n        /* \"#utility.yul\":3570:3641   */\n      tag_42\n      jump\t// in\n    tag_94:\n        /* \"#utility.yul\":3426:3648   */\n      swap3\n      swap2\n      pop\n      pop\n      jump\t// out\n        /* \"#utility.yul\":3654:3753   */\n    tag_43:\n        /* \"#utility.yul\":3706:3712   */\n      0x00\n        /* \"#utility.yul\":3740:3745   */\n      dup2\n        /* \"#utility.yul\":3734:3746   */\n      mload\n        /* \"#utility.yul\":3724:3746   */\n      swap1\n      pop\n        /* \"#utility.yul\":3654:3753   */\n      swap2\n      swap1\n      pop\n      jump\t// out\n        /* \"#utility.yul\":3759:3907   */\n    tag_44:\n        /* \"#utility.yul\":3861:3872   */\n      0x00\n        /* \"#utility.yul\":3898:3901   */\n      dup2\n        /* \"#utility.yul\":3883:3901   */\n      swap1\n      pop\n        /* \"#utility.yul\":3759:3907   */\n      swap3\n      swap2\n      pop\n      pop\n      jump\t// out\n        /* \"#utility.yul\":3913:4159   */\n    tag_45:\n        /* \"#utility.yul\":3994:3995   */\n      0x00\n        /* \"#utility.yul\":4004:4117   */\n    tag_98:\n        /* \"#utility.yul\":4018:4024   */\n      dup4\n        /* \"#utility.yul\":4015:4016   */\n      dup2\n        /* \"#utility.yul\":4012:4025   */\n      lt\n        /* \"#utility.yul\":4004:4117   */\n      iszero\n      tag_100\n      jumpi\n        /* \"#utility.yul\":4103:4104   */\n      dup1\n        /* \"#utility.yul\":4098:4101   */\n      dup3\n        /* \"#utility.yul\":4094:4105   */\n      add\n        /* \"#utility.yul\":4088:4106   */\n      mload\n        /* \"#utility.yul\":4084:4085   */\n      dup2\n        /* \"#utility.yul\":4079:4082   */\n      dup5\n        /* \"#utility.yul\":4075:4086   */\n      add\n        /* \"#utility.yul\":4068:4107   */\n      mstore\n        /* \"#utility.yul\":4040:4042   */\n      0x20\n        /* \"#utility.yul\":4037:4038   */\n      dup2\n        /* \"#utility.yul\":4033:4043   */\n      add\n        /* \"#utility.yul\":4028:4043   */\n      swap1\n      pop\n        /* \"#utility.yul\":4004:4117   */\n      jump(tag_98)\n    tag_100:\n        /* \"#utility.yul\":4151:4152   */\n      0x00\n        /* \"#utility.yul\":4142:4148   */\n      dup5\n        /* \"#utility.yul\":4137:4140   */\n      dup5\n        /* \"#utility.yul\":4133:4149   */\n      add\n        /* \"#utility.yul\":4126:4153   */\n      mstore\n        /* \"#utility.yul\":3975:4159   */\n      pop\n        /* \"#utility.yul\":3913:4159   */\n      pop\n      pop\n      pop\n      jump\t// out\n        /* \"#utility.yul\":4165:4555   */\n    tag_46:\n        /* \"#utility.yul\":4271:4274   */\n      0x00\n        /* \"#utility.yul\":4299:4338   */\n      tag_102\n        /* \"#utility.yul\":4332:4337   */\n      dup3\n        /* \"#utility.yul\":4299:4338   */\n      tag_43\n      jump\t// in\n    tag_102:\n        /* \"#utility.yul\":4354:4443   */\n      tag_103\n        /* \"#utility.yul\":4436:4442   */\n      dup2\n        /* \"#utility.yul\":4431:4434   */\n      dup6\n        /* \"#utility.yul\":4354:4443   */\n      tag_44\n      jump\t// in\n    tag_103:\n        /* \"#utility.yul\":4347:4443   */\n      swap4\n      pop\n        /* \"#utility.yul\":4452:4517   */\n      tag_104\n        /* \"#utility.yul\":4510:4516   */\n      dup2\n        /* \"#utility.yul\":4505:4508   */\n      dup6\n        /* \"#utility.yul\":4498:4502   */\n      0x20\n        /* \"#utility.yul\":4491:4496   */\n      dup7\n        /* \"#utility.yul\":4487:4503   */\n      add\n        /* \"#utility.yul\":4452:4517   */\n      tag_45\n      jump\t// in\n    tag_104:\n        /* \"#utility.yul\":4542:4548   */\n      dup1\n        /* \"#utility.yul\":4537:4540   */\n      dup5\n        /* \"#utility.yul\":4533:4549   */\n      add\n        /* \"#utility.yul\":4526:4549   */\n      swap2\n      pop\n        /* \"#utility.yul\":4275:4555   */\n      pop\n        /* \"#utility.yul\":4165:4555   */\n      swap3\n      swap2\n      pop\n      pop\n      jump\t// out\n        /* \"#utility.yul\":4561:4836   */\n    tag_16:\n        /* \"#utility.yul\":4693:4696   */\n      0x00\n        /* \"#utility.yul\":4715:4810   */\n      tag_106\n        /* \"#utility.yul\":4806:4809   */\n      dup3\n        /* \"#utility.yul\":4797:4803   */\n      dup5\n        /* \"#utility.yul\":4715:4810   */\n      tag_46\n      jump\t// in\n    tag_106:\n        /* \"#utility.yul\":4708:4810   */\n      swap2\n      pop\n        /* \"#utility.yul\":4827:4830   */\n      dup2\n        /* \"#utility.yul\":4820:4830   */\n      swap1\n      pop\n        /* \"#utility.yul\":4561:4836   */\n      swap3\n      swap2\n      pop\n      pop\n      jump\t// out\n        /* \"#utility.yul\":4842:5011   */\n    tag_47:\n        /* \"#utility.yul\":4926:4937   */\n      0x00\n        /* \"#utility.yul\":4960:4966   */\n      dup3\n        /* \"#utility.yul\":4955:4958   */\n      dup3\n        /* \"#utility.yul\":4948:4967   */\n      mstore\n        /* \"#utility.yul\":5000:5004   */\n      0x20\n        /* \"#utility.yul\":4995:4998   */\n      dup3\n        /* \"#utility.yul\":4991:5005   */\n      add\n        /* \"#utility.yul\":4976:5005   */\n      swap1\n      pop\n        /* \"#utility.yul\":4842:5011   */\n      swap3\n      swap2\n      pop\n      pop\n      jump\t// out\n        /* \"#utility.yul\":5017:5176   */\n    tag_48:\n        /* \"#utility.yul\":5157:5168   */\n      0x4e6f7420666f756e640000000000000000000000000000000000000000000000\n        /* \"#utility.yul\":5153:5154   */\n      0x00\n        /* \"#utility.yul\":5145:5151   */\n      dup3\n        /* \"#utility.yul\":5141:5155   */\n      add\n        /* \"#utility.yul\":5134:5169   */\n      mstore\n        /* \"#utility.yul\":5017:5176   */\n      pop\n      jump\t// out\n        /* \"#utility.yul\":5182:5547   */\n    tag_49:\n        /* \"#utility.yul\":5324:5327   */\n      0x00\n        /* \"#utility.yul\":5345:5411   */\n      tag_110\n        /* \"#utility.yul\":5409:5410   */\n      0x09\n        /* \"#utility.yul\":5404:5407   */\n      dup4\n        /* \"#utility.yul\":5345:5411   */\n      tag_47\n      jump\t// in\n    tag_110:\n        /* \"#utility.yul\":5338:5411   */\n      swap2\n      pop\n        /* \"#utility.yul\":5420:5513   */\n      tag_111\n        /* \"#utility.yul\":5509:5512   */\n      dup3\n        /* \"#utility.yul\":5420:5513   */\n      tag_48\n      jump\t// in\n    tag_111:\n        /* \"#utility.yul\":5538:5540   */\n      0x20\n        /* \"#utility.yul\":5533:5536   */\n      dup3\n        /* \"#utility.yul\":5529:5541   */\n      add\n        /* \"#utility.yul\":5522:5541   */\n      swap1\n      pop\n        /* \"#utility.yul\":5182:5547   */\n      swap2\n      swap1\n      pop\n      jump\t// out\n        /* \"#utility.yul\":5553:5972   */\n    tag_19:\n        /* \"#utility.yul\":5719:5723   */\n      0x00\n        /* \"#utility.yul\":5757:5759   */\n      0x20\n        /* \"#utility.yul\":5746:5755   */\n      dup3\n        /* \"#utility.yul\":5742:5760   */\n      add\n        /* \"#utility.yul\":5734:5760   */\n      swap1\n      pop\n        /* \"#utility.yul\":5806:5815   */\n      dup2\n        /* \"#utility.yul\":5800:5804   */\n      dup2\n        /* \"#utility.yul\":5796:5816   */\n      sub\n        /* \"#utility.yul\":5792:5793   */\n      0x00\n        /* \"#utility.yul\":5781:5790   */\n      dup4\n        /* \"#utility.yul\":5777:5794   */\n      add\n        /* \"#utility.yul\":5770:5817   */\n      mstore\n        /* \"#utility.yul\":5834:5965   */\n      tag_113\n        /* \"#utility.yul\":5960:5964   */\n      dup2\n        /* \"#utility.yul\":5834:5965   */\n      tag_49\n      jump\t// in\n    tag_113:\n        /* \"#utility.yul\":5826:5965   */\n      swap1\n      pop\n        /* \"#utility.yul\":5553:5972   */\n      swap2\n      swap1\n      pop\n      jump\t// out\n        /* \"#utility.yul\":5978:6138   */\n    tag_50:\n        /* \"#utility.yul\":6118:6130   */\n      0x616c72656179206b657900000000000000000000000000000000000000000000\n        /* \"#utility.yul\":6114:6115   */\n      0x00\n        /* \"#utility.yul\":6106:6112   */\n      dup3\n        /* \"#utility.yul\":6102:6116   */\n      add\n        /* \"#utility.yul\":6095:6131   */\n      mstore\n        /* \"#utility.yul\":5978:6138   */\n      pop\n      jump\t// out\n        /* \"#utility.yul\":6144:6510   */\n    tag_51:\n        /* \"#utility.yul\":6286:6289   */\n      0x00\n        /* \"#utility.yul\":6307:6374   */\n      tag_116\n        /* \"#utility.yul\":6371:6373   */\n      0x0a\n        /* \"#utility.yul\":6366:6369   */\n      dup4\n        /* \"#utility.yul\":6307:6374   */\n      tag_47\n      jump\t// in\n    tag_116:\n        /* \"#utility.yul\":6300:6374   */\n      swap2\n      pop\n        /* \"#utility.yul\":6383:6476   */\n      tag_117\n        /* \"#utility.yul\":6472:6475   */\n      dup3\n        /* \"#utility.yul\":6383:6476   */\n      tag_50\n      jump\t// in\n    tag_117:\n        /* \"#utility.yul\":6501:6503   */\n      0x20\n        /* \"#utility.yul\":6496:6499   */\n      dup3\n        /* \"#utility.yul\":6492:6504   */\n      add\n        /* \"#utility.yul\":6485:6504   */\n      swap1\n      pop\n        /* \"#utility.yul\":6144:6510   */\n      swap2\n      swap1\n      pop\n      jump\t// out\n        /* \"#utility.yul\":6516:6935   */\n    tag_25:\n        /* \"#utility.yul\":6682:6686   */\n      0x00\n        /* \"#utility.yul\":6720:6722   */\n      0x20\n        /* \"#utility.yul\":6709:6718   */\n      dup3\n        /* \"#utility.yul\":6705:6723   */\n      add\n        /* \"#utility.yul\":6697:6723   */\n      swap1\n      pop\n        /* \"#utility.yul\":6769:6778   */\n      dup2\n        /* \"#utility.yul\":6763:6767   */\n      dup2\n        /* \"#utility.yul\":6759:6779   */\n      sub\n        /* \"#utility.yul\":6755:6756   */\n      0x00\n        /* \"#utility.yul\":6744:6753   */\n      dup4\n        /* \"#utility.yul\":6740:6757   */\n      add\n        /* \"#utility.yul\":6733:6780   */\n      mstore\n        /* \"#utility.yul\":6797:6928   */\n      tag_119\n        /* \"#utility.yul\":6923:6927   */\n      dup2\n        /* \"#utility.yul\":6797:6928   */\n      tag_51\n      jump\t// in\n    tag_119:\n        /* \"#utility.yul\":6789:6928   */\n      swap1\n      pop\n        /* \"#utility.yul\":6516:6935   */\n      swap2\n      swap1\n      pop\n      jump\t// out\n\n    auxdata: 0xa2646970667358221220b76c6c8a6823bbf976218f23186f7bf2fc22a34940855dc622e08dfe73d7b12f64736f6c63430008130033\n}\n",
				"bytecode": {
					"linkReferences": {},
					"object": "608060405234801561001057600080fd5b5061062e806100206000396000f3fe608060405234801561001057600080fd5b50600436106100365760003560e01c80636283a82d1461003b578063cb30e0761461006b575b600080fd5b610055600480360381019061005091906103e2565b610087565b604051610062919061046c565b60405180910390f35b610085600480360381019061008091906103e2565b61017b565b005b60008073ffffffffffffffffffffffffffffffffffffffff166000836040516100b091906104f8565b908152602001604051809103902060009054906101000a900473ffffffffffffffffffffffffffffffffffffffff1673ffffffffffffffffffffffffffffffffffffffff1603610135576040517f08c379a000000000000000000000000000000000000000000000000000000000815260040161012c9061056c565b60405180910390fd5b60008260405161014591906104f8565b908152602001604051809103902060009054906101000a900473ffffffffffffffffffffffffffffffffffffffff169050919050565b600073ffffffffffffffffffffffffffffffffffffffff166000826040516101a391906104f8565b908152602001604051809103902060009054906101000a900473ffffffffffffffffffffffffffffffffffffffff1673ffffffffffffffffffffffffffffffffffffffff1614610228576040517f08c379a000000000000000000000000000000000000000000000000000000000815260040161021f906105d8565b60405180910390fd5b3360008260405161023991906104f8565b908152602001604051809103902060006101000a81548173ffffffffffffffffffffffffffffffffffffffff021916908373ffffffffffffffffffffffffffffffffffffffff16021790555050565b6000604051905090565b600080fd5b600080fd5b600080fd5b600080fd5b6000601f19601f8301169050919050565b7f4e487b7100000000000000000000000000000000000000000000000000000000600052604160045260246000fd5b6102ef826102a6565b810181811067ffffffffffffffff8211171561030e5761030d6102b7565b5b80604052505050565b6000610321610288565b905061032d82826102e6565b919050565b600067ffffffffffffffff82111561034d5761034c6102b7565b5b610356826102a6565b9050602081019050919050565b82818337600083830152505050565b600061038561038084610332565b610317565b9050828152602081018484840111156103a1576103a06102a1565b5b6103ac848285610363565b509392505050565b600082601f8301126103c9576103c861029c565b5b81356103d9848260208601610372565b91505092915050565b6000602082840312156103f8576103f7610292565b5b600082013567ffffffffffffffff81111561041657610415610297565b5b610422848285016103b4565b91505092915050565b600073ffffffffffffffffffffffffffffffffffffffff82169050919050565b60006104568261042b565b9050919050565b6104668161044b565b82525050565b6000602082019050610481600083018461045d565b92915050565b600081519050919050565b600081905092915050565b60005b838110156104bb5780820151818401526020810190506104a0565b60008484015250505050565b60006104d282610487565b6104dc8185610492565b93506104ec81856020860161049d565b80840191505092915050565b600061050482846104c7565b915081905092915050565b600082825260208201905092915050565b7f4e6f7420666f756e640000000000000000000000000000000000000000000000600082015250565b600061055660098361050f565b915061056182610520565b602082019050919050565b6000602082019050818103600083015261058581610549565b9050919050565b7f616c72656179206b657900000000000000000000000000000000000000000000600082015250565b60006105c2600a8361050f565b91506105cd8261058c565b602082019050919050565b600060208201905081810360008301526105f1816105b5565b905091905056fea2646970667358221220b76c6c8a6823bbf976218f23186f7bf2fc22a34940855dc622e08dfe73d7b12f64736f6c63430008130033",
					"opcodes": "PUSH1 0x80 PUSH1 0x40 MSTORE CALLVALUE DUP1 ISZERO PUSH2 0x10 JUMPI PUSH1 0x0 DUP1 REVERT JUMPDEST POP PUSH2 0x62E DUP1 PUSH2 0x20 PUSH1 0x0 CODECOPY PUSH1 0x0 RETURN INVALID PUSH1 0x80 PUSH1 0x40 MSTORE CALLVALUE DUP1 ISZERO PUSH2 0x10 JUMPI PUSH1 0x0 DUP1 REVERT JUMPDEST POP PUSH1 0x4 CALLDATASIZE LT PUSH2 0x36 JUMPI PUSH1 0x0 CALLDATALOAD PUSH1 0xE0 SHR DUP1 PUSH4 0x6283A82D EQ PUSH2 0x3B JUMPI DUP1 PUSH4 0xCB30E076 EQ PUSH2 0x6B JUMPI JUMPDEST PUSH1 0x0 DUP1 REVERT JUMPDEST PUSH2 0x55 PUSH1 0x4 DUP1 CALLDATASIZE SUB DUP2 ADD SWAP1 PUSH2 0x50 SWAP2 SWAP1 PUSH2 0x3E2 JUMP JUMPDEST PUSH2 0x87 JUMP JUMPDEST PUSH1 0x40 MLOAD PUSH2 0x62 SWAP2 SWAP1 PUSH2 0x46C JUMP JUMPDEST PUSH1 0x40 MLOAD DUP1 SWAP2 SUB SWAP1 RETURN JUMPDEST PUSH2 0x85 PUSH1 0x4 DUP1 CALLDATASIZE SUB DUP2 ADD SWAP1 PUSH2 0x80 SWAP2 SWAP1 PUSH2 0x3E2 JUMP JUMPDEST PUSH2 0x17B JUMP JUMPDEST STOP JUMPDEST PUSH1 0x0 DUP1 PUSH20 0xFFFFFFFFFFFFFFFFFFFFFFFFFFFFFFFFFFFFFFFF AND PUSH1 0x0 DUP4 PUSH1 0x40 MLOAD PUSH2 0xB0 SWAP2 SWAP1 PUSH2 0x4F8 JUMP JUMPDEST SWAP1 DUP2 MSTORE PUSH1 0x20 ADD PUSH1 0x40 MLOAD DUP1 SWAP2 SUB SWAP1 KECCAK256 PUSH1 0x0 SWAP1 SLOAD SWAP1 PUSH2 0x100 EXP SWAP1 DIV PUSH20 0xFFFFFFFFFFFFFFFFFFFFFFFFFFFFFFFFFFFFFFFF AND PUSH20 0xFFFFFFFFFFFFFFFFFFFFFFFFFFFFFFFFFFFFFFFF AND SUB PUSH2 0x135 JUMPI PUSH1 0x40 MLOAD PUSH32 0x8C379A000000000000000000000000000000000000000000000000000000000 DUP2 MSTORE PUSH1 0x4 ADD PUSH2 0x12C SWAP1 PUSH2 0x56C JUMP JUMPDEST PUSH1 0x40 MLOAD DUP1 SWAP2 SUB SWAP1 REVERT JUMPDEST PUSH1 0x0 DUP3 PUSH1 0x40 MLOAD PUSH2 0x145 SWAP2 SWAP1 PUSH2 0x4F8 JUMP JUMPDEST SWAP1 DUP2 MSTORE PUSH1 0x20 ADD PUSH1 0x40 MLOAD DUP1 SWAP2 SUB SWAP1 KECCAK256 PUSH1 0x0 SWAP1 SLOAD SWAP1 PUSH2 0x100 EXP SWAP1 DIV PUSH20 0xFFFFFFFFFFFFFFFFFFFFFFFFFFFFFFFFFFFFFFFF AND SWAP1 POP SWAP2 SWAP1 POP JUMP JUMPDEST PUSH1 0x0 PUSH20 0xFFFFFFFFFFFFFFFFFFFFFFFFFFFFFFFFFFFFFFFF AND PUSH1 0x0 DUP3 PUSH1 0x40 MLOAD PUSH2 0x1A3 SWAP2 SWAP1 PUSH2 0x4F8 JUMP JUMPDEST SWAP1 DUP2 MSTORE PUSH1 0x20 ADD PUSH1 0x40 MLOAD DUP1 SWAP2 SUB SWAP1 KECCAK256 PUSH1 0x0 SWAP1 SLOAD SWAP1 PUSH2 0x100 EXP SWAP1 DIV PUSH20 0xFFFFFFFFFFFFFFFFFFFFFFFFFFFFFFFFFFFFFFFF AND PUSH20 0xFFFFFFFFFFFFFFFFFFFFFFFFFFFFFFFFFFFFFFFF AND EQ PUSH2 0x228 JUMPI PUSH1 0x40 MLOAD PUSH32 0x8C379A000000000000000000000000000000000000000000000000000000000 DUP2 MSTORE PUSH1 0x4 ADD PUSH2 0x21F SWAP1 PUSH2 0x5D8 JUMP JUMPDEST PUSH1 0x40 MLOAD DUP1 SWAP2 SUB SWAP1 REVERT JUMPDEST CALLER PUSH1 0x0 DUP3 PUSH1 0x40 MLOAD PUSH2 0x239 SWAP2 SWAP1 PUSH2 0x4F8 JUMP JUMPDEST SWAP1 DUP2 MSTORE PUSH1 0x20 ADD PUSH1 0x40 MLOAD DUP1 SWAP2 SUB SWAP1 KECCAK256 PUSH1 0x0 PUSH2 0x100 EXP DUP2 SLOAD DUP2 PUSH20 0xFFFFFFFFFFFFFFFFFFFFFFFFFFFFFFFFFFFFFFFF MUL NOT AND SWAP1 DUP4 PUSH20 0xFFFFFFFFFFFFFFFFFFFFFFFFFFFFFFFFFFFFFFFF AND MUL OR SWAP1 SSTORE POP POP JUMP JUMPDEST PUSH1 0x0 PUSH1 0x40 MLOAD SWAP1 POP SWAP1 JUMP JUMPDEST PUSH1 0x0 DUP1 REVERT JUMPDEST PUSH1 0x0 DUP1 REVERT JUMPDEST PUSH1 0x0 DUP1 REVERT JUMPDEST PUSH1 0x0 DUP1 REVERT JUMPDEST PUSH1 0x0 PUSH1 0x1F NOT PUSH1 0x1F DUP4 ADD AND SWAP1 POP SWAP2 SWAP1 POP JUMP JUMPDEST PUSH32 0x4E487B7100000000000000000000000000000000000000000000000000000000 PUSH1 0x0 MSTORE PUSH1 0x41 PUSH1 0x4 MSTORE PUSH1 0x24 PUSH1 0x0 REVERT JUMPDEST PUSH2 0x2EF DUP3 PUSH2 0x2A6 JUMP JUMPDEST DUP2 ADD DUP2 DUP2 LT PUSH8 0xFFFFFFFFFFFFFFFF DUP3 GT OR ISZERO PUSH2 0x30E JUMPI PUSH2 0x30D PUSH2 0x2B7 JUMP JUMPDEST JUMPDEST DUP1 PUSH1 0x40 MSTORE POP POP POP JUMP JUMPDEST PUSH1 0x0 PUSH2 0x321 PUSH2 0x288 JUMP JUMPDEST SWAP1 POP PUSH2 0x32D DUP3 DUP3 PUSH2 0x2E6 JUMP JUMPDEST SWAP2 SWAP1 POP JUMP JUMPDEST PUSH1 0x0 PUSH8 0xFFFFFFFFFFFFFFFF DUP3 GT ISZERO PUSH2 0x34D JUMPI PUSH2 0x34C PUSH2 0x2B7 JUMP JUMPDEST JUMPDEST PUSH2 0x356 DUP3 PUSH2 0x2A6 JUMP JUMPDEST SWAP1 POP PUSH1 0x20 DUP2 ADD SWAP1 POP SWAP2 SWAP1 POP JUMP JUMPDEST DUP3 DUP2 DUP4 CALLDATACOPY PUSH1 0x0 DUP4 DUP4 ADD MSTORE POP POP POP JUMP JUMPDEST PUSH1 0x0 PUSH2 0x385 PUSH2 0x380 DUP5 PUSH2 0x332 JUMP JUMPDEST PUSH2 0x317 JUMP JUMPDEST SWAP1 POP DUP3 DUP2 MSTORE PUSH1 0x20 DUP2 ADD DUP5 DUP5 DUP5 ADD GT ISZERO PUSH2 0x3A1 JUMPI PUSH2 0x3A0 PUSH2 0x2A1 JUMP JUMPDEST JUMPDEST PUSH2 0x3AC DUP5 DUP3 DUP6 PUSH2 0x363 JUMP JUMPDEST POP SWAP4 SWAP3 POP POP POP JUMP JUMPDEST PUSH1 0x0 DUP3 PUSH1 0x1F DUP4 ADD SLT PUSH2 0x3C9 JUMPI PUSH2 0x3C8 PUSH2 0x29C JUMP JUMPDEST JUMPDEST DUP2 CALLDATALOAD PUSH2 0x3D9 DUP5 DUP3 PUSH1 0x20 DUP7 ADD PUSH2 0x372 JUMP JUMPDEST SWAP2 POP POP SWAP3 SWAP2 POP POP JUMP JUMPDEST PUSH1 0x0 PUSH1 0x20 DUP3 DUP5 SUB SLT ISZERO PUSH2 0x3F8 JUMPI PUSH2 0x3F7 PUSH2 0x292 JUMP JUMPDEST JUMPDEST PUSH1 0x0 DUP3 ADD CALLDATALOAD PUSH8 0xFFFFFFFFFFFFFFFF DUP2 GT ISZERO PUSH2 0x416 JUMPI PUSH2 0x415 PUSH2 0x297 JUMP JUMPDEST JUMPDEST PUSH2 0x422 DUP5 DUP3 DUP6 ADD PUSH2 0x3B4 JUMP JUMPDEST SWAP2 POP POP SWAP3 SWAP2 POP POP JUMP JUMPDEST PUSH1 0x0 PUSH20 0xFFFFFFFFFFFFFFFFFFFFFFFFFFFFFFFFFFFFFFFF DUP3 AND SWAP1 POP SWAP2 SWAP1 POP JUMP JUMPDEST PUSH1 0x0 PUSH2 0x456 DUP3 PUSH2 0x42B JUMP JUMPDEST SWAP1 POP SWAP2 SWAP1 POP JUMP JUMPDEST PUSH2 0x466 DUP2 PUSH2 0x44B JUMP JUMPDEST DUP3 MSTORE POP POP JUMP JUMPDEST PUSH1 0x0 PUSH1 0x20 DUP3 ADD SWAP1 POP PUSH2 0x481 PUSH1 0x0 DUP4 ADD DUP5 PUSH2 0x45D JUMP JUMPDEST SWAP3 SWAP2 POP POP JUMP JUMPDEST PUSH1 0x0 DUP2 MLOAD SWAP1 POP SWAP2 SWAP1 POP JUMP JUMPDEST PUSH1 0x0 DUP2 SWAP1 POP SWAP3 SWAP2 POP POP JUMP JUMPDEST PUSH1 0x0 JUMPDEST DUP4 DUP2 LT ISZERO PUSH2 0x4BB JUMPI DUP1 DUP3 ADD MLOAD DUP2 DUP5 ADD MSTORE PUSH1 0x20 DUP2 ADD SWAP1 POP PUSH2 0x4A0 JUMP JUMPDEST PUSH1 0x0 DUP5 DUP5 ADD MSTORE POP POP POP POP JUMP JUMPDEST PUSH1 0x0 PUSH2 0x4D2 DUP3 PUSH2 0x487 JUMP JUMPDEST PUSH2 0x4DC DUP2 DUP6 PUSH2 0x492 JUMP JUMPDEST SWAP4 POP PUSH2 0x4EC DUP2 DUP6 PUSH1 0x20 DUP7 ADD PUSH2 0x49D JUMP JUMPDEST DUP1 DUP5 ADD SWAP2 POP POP SWAP3 SWAP2 POP POP JUMP JUMPDEST PUSH1 0x0 PUSH2 0x504 DUP3 DUP5 PUSH2 0x4C7 JUMP JUMPDEST SWAP2 POP DUP2 SWAP1 POP SWAP3 SWAP2 POP POP JUMP JUMPDEST PUSH1 0x0 DUP3 DUP3 MSTORE PUSH1 0x20 DUP3 ADD SWAP1 POP SWAP3 SWAP2 POP POP JUMP JUMPDEST PUSH32 0x4E6F7420666F756E640000000000000000000000000000000000000000000000 PUSH1 0x0 DUP3 ADD MSTORE POP JUMP JUMPDEST PUSH1 0x0 PUSH2 0x556 PUSH1 0x9 DUP4 PUSH2 0x50F JUMP JUMPDEST SWAP2 POP PUSH2 0x561 DUP3 PUSH2 0x520 JUMP JUMPDEST PUSH1 0x20 DUP3 ADD SWAP1 POP SWAP2 SWAP1 POP JUMP JUMPDEST PUSH1 0x0 PUSH1 0x20 DUP3 ADD SWAP1 POP DUP2 DUP2 SUB PUSH1 0x0 DUP4 ADD MSTORE PUSH2 0x585 DUP2 PUSH2 0x549 JUMP JUMPDEST SWAP1 POP SWAP2 SWAP1 POP JUMP JUMPDEST PUSH32 0x616C72656179206B657900000000000000000000000000000000000000000000 PUSH1 0x0 DUP3 ADD MSTORE POP JUMP JUMPDEST PUSH1 0x0 PUSH2 0x5C2 PUSH1 0xA DUP4 PUSH2 0x50F JUMP JUMPDEST SWAP2 POP PUSH2 0x5CD DUP3 PUSH2 0x58C JUMP JUMPDEST PUSH1 0x20 DUP3 ADD SWAP1 POP SWAP2 SWAP1 POP JUMP JUMPDEST PUSH1 0x0 PUSH1 0x20 DUP3 ADD SWAP1 POP DUP2 DUP2 SUB PUSH1 0x0 DUP4 ADD MSTORE PUSH2 0x5F1 DUP2 PUSH2 0x5B5 JUMP JUMPDEST SWAP1 POP SWAP2 SWAP1 POP JUMP INVALID LOG2 PUSH5 0x6970667358 0x22 SLT KECCAK256 0xB7 PUSH13 0x6C8A6823BBF976218F23186F7B CALLCODE 0xFC 0x22 LOG3 0x49 BLOCKHASH DUP6 0x5D 0xC6 0x22 0xE0 DUP14 INVALID PUSH20 0xD7B12F64736F6C63430008130033000000000000 "
				},
				"gasEstimates": {
					"creation": {
						"codeDepositCost": "316400",
						"executionCost": "355",
						"totalCost": "316755"
					},
					"external": {
						"addNumber(string)": "infinite",
						"viewNumber(string)": "infinite"
					}
				},
				"methodIdentifiers": {
					"addNumber(string)": "cb30e076",
					"viewNumber(string)": "6283a82d"
				}
			},
			"storageLayout": {
				"storage": [
					{
						"astId": 5,
						"contract": "contracts/sjgtoken.sol:first",
						"label": "aaa",
						"offset": 0,
						"slot": "0",
						"type": "t_mapping(t_string_memory_ptr,t_address)"
					}
				],
				"types": {
					"t_address": {
						"encoding": "inplace",
						"label": "address",
						"numberOfBytes": "20"
					},
					"t_mapping(t_string_memory_ptr,t_address)": {
						"encoding": "mapping",
						"key": "t_string_memory_ptr",
						"label": "mapping(string => address)",
						"numberOfBytes": "32",
						"value": "t_address"
					},
					"t_string_memory_ptr": {
						"encoding": "bytes",
						"label": "string",
						"numberOfBytes": "32"
					}
				}
			},
			"userdoc": {
				"kind": "user",
				"methods": {},
				"version": 1
			}
		}
	}
}