{
	"contracts/sjgtoken.sol": {
		"second": {
			"abi": [
				{
					"inputs": [],
					"name": "plusNumber",
					"outputs": [
						{
							"internalType": "uint256",
							"name": "",
							"type": "uint256"
						}
					],
					"stateMutability": "nonpayable",
					"type": "function"
				},
				{
					"inputs": [],
					"name": "viewAddress",
					"outputs": [
						{
							"internalType": "address",
							"name": "",
							"type": "address"
						}
					],
					"stateMutability": "view",
					"type": "function"
				},
				{
					"inputs": [],
					"name": "vvvvvv",
					"outputs": [
						{
							"internalType": "uint256",
							"name": "",
							"type": "uint256"
						}
					],
					"stateMutability": "view",
					"type": "function"
				}
			],
			"devdoc": {
				"kind": "dev",
				"methods": {},
				"version": 1
			},
			"evm": {
				"assembly": "    /* \"contracts/sjgtoken.sol\":578:914  contract second {... */\n  mstore(0x40, 0x80)\n    /* \"contracts/sjgtoken.sol\":612:613  1 */\n  0x01\n    /* \"contracts/sjgtoken.sol\":601:613  uint bbb = 1 */\n  0x00\n  sstore\n    /* \"contracts/sjgtoken.sol\":578:914  contract second {... */\n  callvalue\n  dup1\n  iszero\n  tag_1\n  jumpi\n  0x00\n  dup1\n  revert\ntag_1:\n  pop\n  dataSize(sub_0)\n  dup1\n  dataOffset(sub_0)\n  0x00\n  codecopy\n  0x00\n  return\nstop\n\nsub_0: assembly {\n        /* \"contracts/sjgtoken.sol\":578:914  contract second {... */\n      mstore(0x40, 0x80)\n      callvalue\n      dup1\n      iszero\n      tag_1\n      jumpi\n      0x00\n      dup1\n      revert\n    tag_1:\n      pop\n      jumpi(tag_2, lt(calldatasize, 0x04))\n      shr(0xe0, calldataload(0x00))\n      dup1\n      0x1344e164\n      eq\n      tag_3\n      jumpi\n      dup1\n      0x18b04c8a\n      eq\n      tag_4\n      jumpi\n      dup1\n      0xd60d5a44\n      eq\n      tag_5\n      jumpi\n    tag_2:\n      0x00\n      dup1\n      revert\n        /* \"contracts/sjgtoken.sol\":715:787  function vvvvvv() public view returns(uint){... */\n    tag_3:\n      tag_6\n      tag_7\n      jump\t// in\n    tag_6:\n      mload(0x40)\n      tag_8\n      swap2\n      swap1\n      tag_9\n      jump\t// in\n    tag_8:\n      mload(0x40)\n      dup1\n      swap2\n      sub\n      swap1\n      return\n        /* \"contracts/sjgtoken.sol\":795:911  function viewAddress() public view returns(address) {... */\n    tag_4:\n      tag_10\n      tag_11\n      jump\t// in\n    tag_10:\n      mload(0x40)\n      tag_12\n      swap2\n      swap1\n      tag_13\n      jump\t// in\n    tag_12:\n      mload(0x40)\n      dup1\n      swap2\n      sub\n      swap1\n      return\n        /* \"contracts/sjgtoken.sol\":622:709  function plusNumber() public returns(uint){... */\n    tag_5:\n      tag_14\n      tag_15\n      jump\t// in\n    tag_14:\n      mload(0x40)\n      tag_16\n      swap2\n      swap1\n      tag_9\n      jump\t// in\n    tag_16:\n      mload(0x40)\n      dup1\n      swap2\n      sub\n      swap1\n      return\n        /* \"contracts/sjgtoken.sol\":715:787  function vvvvvv() public view returns(uint){... */\n    tag_7:\n        /* \"contracts/sjgtoken.sol\":753:757  uint */\n      0x00\n        /* \"contracts/sjgtoken.sol\":776:779  bbb */\n      dup1\n      sload\n        /* \"contracts/sjgtoken.sol\":769:779  return bbb */\n      swap1\n      pop\n        /* \"contracts/sjgtoken.sol\":715:787  function vvvvvv() public view returns(uint){... */\n      swap1\n      jump\t// out\n        /* \"contracts/sjgtoken.sol\":795:911  function viewAddress() public view returns(address) {... */\n    tag_11:\n        /* \"contracts/sjgtoken.sol\":838:845  address */\n      0x00\n        /* \"contracts/sjgtoken.sol\":858:869  address add */\n      dup1\n        /* \"contracts/sjgtoken.sol\":872:882  msg.sender */\n      caller\n        /* \"contracts/sjgtoken.sol\":858:882  address add = msg.sender */\n      swap1\n      pop\n        /* \"contracts/sjgtoken.sol\":900:903  add */\n      dup1\n        /* \"contracts/sjgtoken.sol\":893:903  return add */\n      swap2\n      pop\n      pop\n        /* \"contracts/sjgtoken.sol\":795:911  function viewAddress() public view returns(address) {... */\n      swap1\n      jump\t// out\n        /* \"contracts/sjgtoken.sol\":622:709  function plusNumber() public returns(uint){... */\n    tag_15:\n        /* \"contracts/sjgtoken.sol\":659:663  uint */\n      0x00\n        /* \"contracts/sjgtoken.sol\":675:678  bbb */\n      dup1\n      0x00\n        /* \"contracts/sjgtoken.sol\":675:680  bbb++ */\n      dup2\n      sload\n      dup1\n      swap3\n      swap2\n      swap1\n      tag_20\n      swap1\n      tag_21\n      jump\t// in\n    tag_20:\n      swap2\n      swap1\n      pop\n      sstore\n      pop\n        /* \"contracts/sjgtoken.sol\":698:701  bbb */\n      sload(0x00)\n        /* \"contracts/sjgtoken.sol\":691:701  return bbb */\n      swap1\n      pop\n        /* \"contracts/sjgtoken.sol\":622:709  function plusNumber() public returns(uint){... */\n      swap1\n      jump\t// out\n        /* \"#utility.yul\":7:84   */\n    tag_22:\n        /* \"#utility.yul\":44:51   */\n      0x00\n        /* \"#utility.yul\":73:78   */\n      dup2\n        /* \"#utility.yul\":62:78   */\n      swap1\n      pop\n        /* \"#utility.yul\":7:84   */\n      swap2\n      swap1\n      pop\n      jump\t// out\n        /* \"#utility.yul\":90:208   */\n    tag_23:\n        /* \"#utility.yul\":177:201   */\n      tag_31\n        /* \"#utility.yul\":195:200   */\n      dup2\n        /* \"#utility.yul\":177:201   */\n      tag_22\n      jump\t// in\n    tag_31:\n        /* \"#utility.yul\":172:175   */\n      dup3\n        /* \"#utility.yul\":165:202   */\n      mstore\n        /* \"#utility.yul\":90:208   */\n      pop\n      pop\n      jump\t// out\n        /* \"#utility.yul\":214:436   */\n    tag_9:\n        /* \"#utility.yul\":307:311   */\n      0x00\n        /* \"#utility.yul\":345:347   */\n      0x20\n        /* \"#utility.yul\":334:343   */\n      dup3\n        /* \"#utility.yul\":330:348   */\n      add\n        /* \"#utility.yul\":322:348   */\n      swap1\n      pop\n        /* \"#utility.yul\":358:429   */\n      tag_33\n        /* \"#utility.yul\":426:427   */\n      0x00\n        /* \"#utility.yul\":415:424   */\n      dup4\n        /* \"#utility.yul\":411:428   */\n      add\n        /* \"#utility.yul\":402:408   */\n      dup5\n        /* \"#utility.yul\":358:429   */\n      tag_23\n      jump\t// in\n    tag_33:\n        /* \"#utility.yul\":214:436   */\n      swap3\n      swap2\n      pop\n      pop\n      jump\t// out\n        /* \"#utility.yul\":442:568   */\n    tag_24:\n        /* \"#utility.yul\":479:486   */\n      0x00\n        /* \"#utility.yul\":519:561   */\n      0xffffffffffffffffffffffffffffffffffffffff\n        /* \"#utility.yul\":512:517   */\n      dup3\n        /* \"#utility.yul\":508:562   */\n      and\n        /* \"#utility.yul\":497:562   */\n      swap1\n      pop\n        /* \"#utility.yul\":442:568   */\n      swap2\n      swap1\n      pop\n      jump\t// out\n        /* \"#utility.yul\":574:670   */\n    tag_25:\n        /* \"#utility.yul\":611:618   */\n      0x00\n        /* \"#utility.yul\":640:664   */\n      tag_36\n        /* \"#utility.yul\":658:663   */\n      dup3\n        /* \"#utility.yul\":640:664   */\n      tag_24\n      jump\t// in\n    tag_36:\n        /* \"#utility.yul\":629:664   */\n      swap1\n      pop\n        /* \"#utility.yul\":574:670   */\n      swap2\n      swap1\n      pop\n      jump\t// out\n        /* \"#utility.yul\":676:794   */\n    tag_26:\n        /* \"#utility.yul\":763:787   */\n      tag_38\n        /* \"#utility.yul\":781:786   */\n      dup2\n        /* \"#utility.yul\":763:787   */\n      tag_25\n      jump\t// in\n    tag_38:\n        /* \"#utility.yul\":758:761   */\n      dup3\n        /* \"#utility.yul\":751:788   */\n      mstore\n        /* \"#utility.yul\":676:794   */\n      pop\n      pop\n      jump\t// out\n        /* \"#utility.yul\":800:1022   */\n    tag_13:\n        /* \"#utility.yul\":893:897   */\n      0x00\n        /* \"#utility.yul\":931:933   */\n      0x20\n        /* \"#utility.yul\":920:929   */\n      dup3\n        /* \"#utility.yul\":916:934   */\n      add\n        /* \"#utility.yul\":908:934   */\n      swap1\n      pop\n        /* \"#utility.yul\":944:1015   */\n      tag_40\n        /* \"#utility.yul\":1012:1013   */\n      0x00\n        /* \"#utility.yul\":1001:1010   */\n      dup4\n        /* \"#utility.yul\":997:1014   */\n      add\n        /* \"#utility.yul\":988:994   */\n      dup5\n        /* \"#utility.yul\":944:1015   */\n      tag_26\n      jump\t// in\n    tag_40:\n        /* \"#utility.yul\":800:1022   */\n      swap3\n      swap2\n      pop\n      pop\n      jump\t// out\n        /* \"#utility.yul\":1028:1208   */\n    tag_27:\n        /* \"#utility.yul\":1076:1153   */\n      0x4e487b7100000000000000000000000000000000000000000000000000000000\n        /* \"#utility.yul\":1073:1074   */\n      0x00\n        /* \"#utility.yul\":1066:1154   */\n      mstore\n        /* \"#utility.yul\":1173:1177   */\n      0x11\n        /* \"#utility.yul\":1170:1171   */\n      0x04\n        /* \"#utility.yul\":1163:1178   */\n      mstore\n        /* \"#utility.yul\":1197:1201   */\n      0x24\n        /* \"#utility.yul\":1194:1195   */\n      0x00\n        /* \"#utility.yul\":1187:1202   */\n      revert\n        /* \"#utility.yul\":1214:1447   */\n    tag_21:\n        /* \"#utility.yul\":1253:1256   */\n      0x00\n        /* \"#utility.yul\":1276:1300   */\n      tag_43\n        /* \"#utility.yul\":1294:1299   */\n      dup3\n        /* \"#utility.yul\":1276:1300   */\n      tag_22\n      jump\t// in\n    tag_43:\n        /* \"#utility.yul\":1267:1300   */\n      swap2\n      pop\n        /* \"#utility.yul\":1322:1388   */\n      0xffffffffffffffffffffffffffffffffffffffffffffffffffffffffffffffff\n        /* \"#utility.yul\":1315:1320   */\n      dup3\n        /* \"#utility.yul\":1312:1389   */\n      sub\n        /* \"#utility.yul\":1309:1412   */\n      tag_44\n      jumpi\n        /* \"#utility.yul\":1392:1410   */\n      tag_45\n      tag_27\n      jump\t// in\n    tag_45:\n        /* \"#utility.yul\":1309:1412   */\n    tag_44:\n        /* \"#utility.yul\":1439:1440   */\n      0x01\n        /* \"#utility.yul\":1432:1437   */\n      dup3\n        /* \"#utility.yul\":1428:1441   */\n      add\n        /* \"#utility.yul\":1421:1441   */\n      swap1\n      pop\n        /* \"#utility.yul\":1214:1447   */\n      swap2\n      swap1\n      pop\n      jump\t// out\n\n    auxdata: 0xa26469706673582212208439c1137569ad8d4c57a0b7320611fe444f75b977ea2d65dfac5849e611d1f164736f6c63430008130033\n}\n",
				"bytecode": {
					"linkReferences": {},
					"object": "6080604052600160005534801561001557600080fd5b50610214806100256000396000f3fe608060405234801561001057600080fd5b50600436106100415760003560e01c80631344e1641461004657806318b04c8a14610064578063d60d5a4414610082575b600080fd5b61004e6100a0565b60405161005b91906100f0565b60405180910390f35b61006c6100a9565b604051610079919061014c565b60405180910390f35b61008a6100b6565b60405161009791906100f0565b60405180910390f35b60008054905090565b6000803390508091505090565b60008060008154809291906100ca90610196565b9190505550600054905090565b6000819050919050565b6100ea816100d7565b82525050565b600060208201905061010560008301846100e1565b92915050565b600073ffffffffffffffffffffffffffffffffffffffff82169050919050565b60006101368261010b565b9050919050565b6101468161012b565b82525050565b6000602082019050610161600083018461013d565b92915050565b7f4e487b7100000000000000000000000000000000000000000000000000000000600052601160045260246000fd5b60006101a1826100d7565b91507fffffffffffffffffffffffffffffffffffffffffffffffffffffffffffffffff82036101d3576101d2610167565b5b60018201905091905056fea26469706673582212208439c1137569ad8d4c57a0b7320611fe444f75b977ea2d65dfac5849e611d1f164736f6c63430008130033",
					"opcodes": "PUSH1 0x80 PUSH1 0x40 MSTORE PUSH1 0x1 PUSH1 0x0 SSTORE CALLVALUE DUP1 ISZERO PUSH2 0x15 JUMPI PUSH1 0x0 DUP1 REVERT JUMPDEST POP PUSH2 0x214 DUP1 PUSH2 0x25 PUSH1 0x0 CODECOPY PUSH1 0x0 RETURN INVALID PUSH1 0x80 PUSH1 0x40 MSTORE CALLVALUE DUP1 ISZERO PUSH2 0x10 JUMPI PUSH1 0x0 DUP1 REVERT JUMPDEST POP PUSH1 0x4 CALLDATASIZE LT PUSH2 0x41 JUMPI PUSH1 0x0 CALLDATALOAD PUSH1 0xE0 SHR DUP1 PUSH4 0x1344E164 EQ PUSH2 0x46 JUMPI DUP1 PUSH4 0x18B04C8A EQ PUSH2 0x64 JUMPI DUP1 PUSH4 0xD60D5A44 EQ PUSH2 0x82 JUMPI JUMPDEST PUSH1 0x0 DUP1 REVERT JUMPDEST PUSH2 0x4E PUSH2 0xA0 JUMP JUMPDEST PUSH1 0x40 MLOAD PUSH2 0x5B SWAP2 SWAP1 PUSH2 0xF0 JUMP JUMPDEST PUSH1 0x40 MLOAD DUP1 SWAP2 SUB SWAP1 RETURN JUMPDEST PUSH2 0x6C PUSH2 0xA9 JUMP JUMPDEST PUSH1 0x40 MLOAD PUSH2 0x79 SWAP2 SWAP1 PUSH2 0x14C JUMP JUMPDEST PUSH1 0x40 MLOAD DUP1 SWAP2 SUB SWAP1 RETURN JUMPDEST PUSH2 0x8A PUSH2 0xB6 JUMP JUMPDEST PUSH1 0x40 MLOAD PUSH2 0x97 SWAP2 SWAP1 PUSH2 0xF0 JUMP JUMPDEST PUSH1 0x40 MLOAD DUP1 SWAP2 SUB SWAP1 RETURN JUMPDEST PUSH1 0x0 DUP1 SLOAD SWAP1 POP SWAP1 JUMP JUMPDEST PUSH1 0x0 DUP1 CALLER SWAP1 POP DUP1 SWAP2 POP POP SWAP1 JUMP JUMPDEST PUSH1 0x0 DUP1 PUSH1 0x0 DUP2 SLOAD DUP1 SWAP3 SWAP2 SWAP1 PUSH2 0xCA SWAP1 PUSH2 0x196 JUMP JUMPDEST SWAP2 SWAP1 POP SSTORE POP PUSH1 0x0 SLOAD SWAP1 POP SWAP1 JUMP JUMPDEST PUSH1 0x0 DUP2 SWAP1 POP SWAP2 SWAP1 POP JUMP JUMPDEST PUSH2 0xEA DUP2 PUSH2 0xD7 JUMP JUMPDEST DUP3 MSTORE POP POP JUMP JUMPDEST PUSH1 0x0 PUSH1 0x20 DUP3 ADD SWAP1 POP PUSH2 0x105 PUSH1 0x0 DUP4 ADD DUP5 PUSH2 0xE1 JUMP JUMPDEST SWAP3 SWAP2 POP POP JUMP JUMPDEST PUSH1 0x0 PUSH20 0xFFFFFFFFFFFFFFFFFFFFFFFFFFFFFFFFFFFFFFFF DUP3 AND SWAP1 POP SWAP2 SWAP1 POP JUMP JUMPDEST PUSH1 0x0 PUSH2 0x136 DUP3 PUSH2 0x10B JUMP JUMPDEST SWAP1 POP SWAP2 SWAP1 POP JUMP JUMPDEST PUSH2 0x146 DUP2 PUSH2 0x12B JUMP JUMPDEST DUP3 MSTORE POP POP JUMP JUMPDEST PUSH1 0x0 PUSH1 0x20 DUP3 ADD SWAP1 POP PUSH2 0x161 PUSH1 0x0 DUP4 ADD DUP5 PUSH2 0x13D JUMP JUMPDEST SWAP3 SWAP2 POP POP JUMP JUMPDEST PUSH32 0x4E487B7100000000000000000000000000000000000000000000000000000000 PUSH1 0x0 MSTORE PUSH1 0x11 PUSH1 0x4 MSTORE PUSH1 0x24 PUSH1 0x0 REVERT JUMPDEST PUSH1 0x0 PUSH2 0x1A1 DUP3 PUSH2 0xD7 JUMP JUMPDEST SWAP2 POP PUSH32 0xFFFFFFFFFFFFFFFFFFFFFFFFFFFFFFFFFFFFFFFFFFFFFFFFFFFFFFFFFFFFFFFF DUP3 SUB PUSH2 0x1D3 JUMPI PUSH2 0x1D2 PUSH2 0x167 JUMP JUMPDEST JUMPDEST PUSH1 0x1 DUP3 ADD SWAP1 POP SWAP2 SWAP1 POP JUMP INVALID LOG2 PUSH5 0x6970667358 0x22 SLT KECCAK256 DUP5 CODECOPY 0xC1 SGT PUSH22 0x69AD8D4C57A0B7320611FE444F75B977EA2D65DFAC58 0x49 0xE6 GT 0xD1 CALL PUSH5 0x736F6C6343 STOP ADDMOD SGT STOP CALLER "
				},
				"gasEstimates": {
					"creation": {
						"codeDepositCost": "106400",
						"executionCost": "22259",
						"totalCost": "128659"
					},
					"external": {
						"plusNumber()": "infinite",
						"viewAddress()": "398",
						"vvvvvv()": "2415"
					}
				},
				"methodIdentifiers": {
					"plusNumber()": "d60d5a44",
					"viewAddress()": "18b04c8a",
					"vvvvvv()": "1344e164"
				}
			},
			"storageLayout": {
				"storage": [
					{
						"astId": 58,
						"contract": "contracts/sjgtoken.sol:second",
						"label": "bbb",
						"offset": 0,
						"slot": "0",
						"type": "t_uint256"
					}
				],
				"types": {
					"t_uint256": {
						"encoding": "inplace",
						"label": "uint256",
						"numberOfBytes": "32"
					}
				}
			},
			"userdoc": {
				"kind": "user",
				"methods": {},
				"version": 1
			}
		}
	}
}