{
	"data": {
		"bytecode": {
			"linkReferences": {},
			"object": "60806040526001805534801561001457600080fd5b506107e2806100246000396000f3fe608060405234801561001057600080fd5b50600436106100415760003560e01c80630909f9fe1461004657806311456b4714610076578063d60d5a4414610092575b600080fd5b610060600480360381019061005b91906104a3565b6100b0565b60405161006d919061052d565b60405180910390f35b610090600480360381019061008b91906104a3565b6101a5565b005b61009a6102b2565b6040516100a7919061059f565b60405180910390f35b60008073ffffffffffffffffffffffffffffffffffffffff166000836040516100d99190610634565b908152602001604051809103902060009054906101000a900473ffffffffffffffffffffffffffffffffffffffff1673ffffffffffffffffffffffffffffffffffffffff16141561015f576040517f08c379a0000000000000000000000000000000000000000000000000000000008152600401610156906106a8565b60405180910390fd5b60008260405161016f9190610634565b908152602001604051809103902060009054906101000a900473ffffffffffffffffffffffffffffffffffffffff169050919050565b600073ffffffffffffffffffffffffffffffffffffffff166000826040516101cd9190610634565b908152602001604051809103902060009054906101000a900473ffffffffffffffffffffffffffffffffffffffff1673ffffffffffffffffffffffffffffffffffffffff1614610252576040517f08c379a000000000000000000000000000000000000000000000000000000000815260040161024990610714565b60405180910390fd5b336000826040516102639190610634565b908152602001604051809103902060006101000a81548173ffffffffffffffffffffffffffffffffffffffff021916908373ffffffffffffffffffffffffffffffffffffffff16021790555050565b6102ba610319565b600060405180604001604052806102cf610311565b73ffffffffffffffffffffffffffffffffffffffff16815260200160015481525090506001600081548092919061030590610763565b91905055508091505090565b600033905090565b6040518060400160405280600073ffffffffffffffffffffffffffffffffffffffff168152602001600081525090565b6000604051905090565b600080fd5b600080fd5b600080fd5b600080fd5b6000601f19601f8301169050919050565b7f4e487b7100000000000000000000000000000000000000000000000000000000600052604160045260246000fd5b6103b082610367565b810181811067ffffffffffffffff821117156103cf576103ce610378565b5b80604052505050565b60006103e2610349565b90506103ee82826103a7565b919050565b600067ffffffffffffffff82111561040e5761040d610378565b5b61041782610367565b9050602081019050919050565b82818337600083830152505050565b6000610446610441846103f3565b6103d8565b90508281526020810184848401111561046257610461610362565b5b61046d848285610424565b509392505050565b600082601f83011261048a5761048961035d565b5b813561049a848260208601610433565b91505092915050565b6000602082840312156104b9576104b8610353565b5b600082013567ffffffffffffffff8111156104d7576104d6610358565b5b6104e384828501610475565b91505092915050565b600073ffffffffffffffffffffffffffffffffffffffff82169050919050565b6000610517826104ec565b9050919050565b6105278161050c565b82525050565b6000602082019050610542600083018461051e565b92915050565b6105518161050c565b82525050565b6000819050919050565b61056a81610557565b82525050565b6040820160008201516105866000850182610548565b5060208201516105996020850182610561565b50505050565b60006040820190506105b46000830184610570565b92915050565b600081519050919050565b600081905092915050565b60005b838110156105ee5780820151818401526020810190506105d3565b838111156105fd576000848401525b50505050565b600061060e826105ba565b61061881856105c5565b93506106288185602086016105d0565b80840191505092915050565b60006106408284610603565b915081905092915050565b600082825260208201905092915050565b7f4e6f7420666f756e640000000000000000000000000000000000000000000000600082015250565b600061069260098361064b565b915061069d8261065c565b602082019050919050565b600060208201905081810360008301526106c181610685565b9050919050565b7f616c72656179206b657900000000000000000000000000000000000000000000600082015250565b60006106fe600a8361064b565b9150610709826106c8565b602082019050919050565b6000602082019050818103600083015261072d816106f1565b9050919050565b7f4e487b7100000000000000000000000000000000000000000000000000000000600052601160045260246000fd5b600061076e82610557565b91507fffffffffffffffffffffffffffffffffffffffffffffffffffffffffffffffff8214156107a1576107a0610734565b5b60018201905091905056fea264697066735822122064cb96f582fda4abe00da52047aca5171d5766c35687a5a187a82e8ea76ae97c64736f6c634300080a0033",
			"opcodes": "PUSH1 0x80 PUSH1 0x40 MSTORE PUSH1 0x1 DUP1 SSTORE CALLVALUE DUP1 ISZERO PUSH2 0x14 JUMPI PUSH1 0x0 DUP1 REVERT JUMPDEST POP PUSH2 0x7E2 DUP1 PUSH2 0x24 PUSH1 0x0 CODECOPY PUSH1 0x0 RETURN INVALID PUSH1 0x80 PUSH1 0x40 MSTORE CALLVALUE DUP1 ISZERO PUSH2 0x10 JUMPI PUSH1 0x0 DUP1 REVERT JUMPDEST POP PUSH1 0x4 CALLDATASIZE LT PUSH2 0x41 JUMPI PUSH1 0x0 CALLDATALOAD PUSH1 0xE0 SHR DUP1 PUSH4 0x909F9FE EQ PUSH2 0x46 JUMPI DUP1 PUSH4 0x11456B47 EQ PUSH2 0x76 JUMPI DUP1 PUSH4 0xD60D5A44 EQ PUSH2 0x92 JUMPI JUMPDEST PUSH1 0x0 DUP1 REVERT JUMPDEST PUSH2 0x60 PUSH1 0x4 DUP1 CALLDATASIZE SUB DUP2 ADD SWAP1 PUSH2 0x5B SWAP2 SWAP1 PUSH2 0x4A3 JUMP JUMPDEST PUSH2 0xB0 JUMP JUMPDEST PUSH1 0x40 MLOAD PUSH2 0x6D SWAP2 SWAP1 PUSH2 0x52D JUMP JUMPDEST PUSH1 0x40 MLOAD DUP1 SWAP2 SUB SWAP1 RETURN JUMPDEST PUSH2 0x90 PUSH1 0x4 DUP1 CALLDATASIZE SUB DUP2 ADD SWAP1 PUSH2 0x8B SWAP2 SWAP1 PUSH2 0x4A3 JUMP JUMPDEST PUSH2 0x1A5 JUMP JUMPDEST STOP JUMPDEST PUSH2 0x9A PUSH2 0x2B2 JUMP JUMPDEST PUSH1 0x40 MLOAD PUSH2 0xA7 SWAP2 SWAP1 PUSH2 0x59F JUMP JUMPDEST PUSH1 0x40 MLOAD DUP1 SWAP2 SUB SWAP1 RETURN JUMPDEST PUSH1 0x0 DUP1 PUSH20 0xFFFFFFFFFFFFFFFFFFFFFFFFFFFFFFFFFFFFFFFF AND PUSH1 0x0 DUP4 PUSH1 0x40 MLOAD PUSH2 0xD9 SWAP2 SWAP1 PUSH2 0x634 JUMP JUMPDEST SWAP1 DUP2 MSTORE PUSH1 0x20 ADD PUSH1 0x40 MLOAD DUP1 SWAP2 SUB SWAP1 KECCAK256 PUSH1 0x0 SWAP1 SLOAD SWAP1 PUSH2 0x100 EXP SWAP1 DIV PUSH20 0xFFFFFFFFFFFFFFFFFFFFFFFFFFFFFFFFFFFFFFFF AND PUSH20 0xFFFFFFFFFFFFFFFFFFFFFFFFFFFFFFFFFFFFFFFF AND EQ ISZERO PUSH2 0x15F JUMPI PUSH1 0x40 MLOAD PUSH32 0x8C379A000000000000000000000000000000000000000000000000000000000 DUP2 MSTORE PUSH1 0x4 ADD PUSH2 0x156 SWAP1 PUSH2 0x6A8 JUMP JUMPDEST PUSH1 0x40 MLOAD DUP1 SWAP2 SUB SWAP1 REVERT JUMPDEST PUSH1 0x0 DUP3 PUSH1 0x40 MLOAD PUSH2 0x16F SWAP2 SWAP1 PUSH2 0x634 JUMP JUMPDEST SWAP1 DUP2 MSTORE PUSH1 0x20 ADD PUSH1 0x40 MLOAD DUP1 SWAP2 SUB SWAP1 KECCAK256 PUSH1 0x0 SWAP1 SLOAD SWAP1 PUSH2 0x100 EXP SWAP1 DIV PUSH20 0xFFFFFFFFFFFFFFFFFFFFFFFFFFFFFFFFFFFFFFFF AND SWAP1 POP SWAP2 SWAP1 POP JUMP JUMPDEST PUSH1 0x0 PUSH20 0xFFFFFFFFFFFFFFFFFFFFFFFFFFFFFFFFFFFFFFFF AND PUSH1 0x0 DUP3 PUSH1 0x40 MLOAD PUSH2 0x1CD SWAP2 SWAP1 PUSH2 0x634 JUMP JUMPDEST SWAP1 DUP2 MSTORE PUSH1 0x20 ADD PUSH1 0x40 MLOAD DUP1 SWAP2 SUB SWAP1 KECCAK256 PUSH1 0x0 SWAP1 SLOAD SWAP1 PUSH2 0x100 EXP SWAP1 DIV PUSH20 0xFFFFFFFFFFFFFFFFFFFFFFFFFFFFFFFFFFFFFFFF AND PUSH20 0xFFFFFFFFFFFFFFFFFFFFFFFFFFFFFFFFFFFFFFFF AND EQ PUSH2 0x252 JUMPI PUSH1 0x40 MLOAD PUSH32 0x8C379A000000000000000000000000000000000000000000000000000000000 DUP2 MSTORE PUSH1 0x4 ADD PUSH2 0x249 SWAP1 PUSH2 0x714 JUMP JUMPDEST PUSH1 0x40 MLOAD DUP1 SWAP2 SUB SWAP1 REVERT JUMPDEST CALLER PUSH1 0x0 DUP3 PUSH1 0x40 MLOAD PUSH2 0x263 SWAP2 SWAP1 PUSH2 0x634 JUMP JUMPDEST SWAP1 DUP2 MSTORE PUSH1 0x20 ADD PUSH1 0x40 MLOAD DUP1 SWAP2 SUB SWAP1 KECCAK256 PUSH1 0x0 PUSH2 0x100 EXP DUP2 SLOAD DUP2 PUSH20 0xFFFFFFFFFFFFFFFFFFFFFFFFFFFFFFFFFFFFFFFF MUL NOT AND SWAP1 DUP4 PUSH20 0xFFFFFFFFFFFFFFFFFFFFFFFFFFFFFFFFFFFFFFFF AND MUL OR SWAP1 SSTORE POP POP JUMP JUMPDEST PUSH2 0x2BA PUSH2 0x319 JUMP JUMPDEST PUSH1 0x0 PUSH1 0x40 MLOAD DUP1 PUSH1 0x40 ADD PUSH1 0x40 MSTORE DUP1 PUSH2 0x2CF PUSH2 0x311 JUMP JUMPDEST PUSH20 0xFFFFFFFFFFFFFFFFFFFFFFFFFFFFFFFFFFFFFFFF AND DUP2 MSTORE PUSH1 0x20 ADD PUSH1 0x1 SLOAD DUP2 MSTORE POP SWAP1 POP PUSH1 0x1 PUSH1 0x0 DUP2 SLOAD DUP1 SWAP3 SWAP2 SWAP1 PUSH2 0x305 SWAP1 PUSH2 0x763 JUMP JUMPDEST SWAP2 SWAP1 POP SSTORE POP DUP1 SWAP2 POP POP SWAP1 JUMP JUMPDEST PUSH1 0x0 CALLER SWAP1 POP SWAP1 JUMP JUMPDEST PUSH1 0x40 MLOAD DUP1 PUSH1 0x40 ADD PUSH1 0x40 MSTORE DUP1 PUSH1 0x0 PUSH20 0xFFFFFFFFFFFFFFFFFFFFFFFFFFFFFFFFFFFFFFFF AND DUP2 MSTORE PUSH1 0x20 ADD PUSH1 0x0 DUP2 MSTORE POP SWAP1 JUMP JUMPDEST PUSH1 0x0 PUSH1 0x40 MLOAD SWAP1 POP SWAP1 JUMP JUMPDEST PUSH1 0x0 DUP1 REVERT JUMPDEST PUSH1 0x0 DUP1 REVERT JUMPDEST PUSH1 0x0 DUP1 REVERT JUMPDEST PUSH1 0x0 DUP1 REVERT JUMPDEST PUSH1 0x0 PUSH1 0x1F NOT PUSH1 0x1F DUP4 ADD AND SWAP1 POP SWAP2 SWAP1 POP JUMP JUMPDEST PUSH32 0x4E487B7100000000000000000000000000000000000000000000000000000000 PUSH1 0x0 MSTORE PUSH1 0x41 PUSH1 0x4 MSTORE PUSH1 0x24 PUSH1 0x0 REVERT JUMPDEST PUSH2 0x3B0 DUP3 PUSH2 0x367 JUMP JUMPDEST DUP2 ADD DUP2 DUP2 LT PUSH8 0xFFFFFFFFFFFFFFFF DUP3 GT OR ISZERO PUSH2 0x3CF JUMPI PUSH2 0x3CE PUSH2 0x378 JUMP JUMPDEST JUMPDEST DUP1 PUSH1 0x40 MSTORE POP POP POP JUMP JUMPDEST PUSH1 0x0 PUSH2 0x3E2 PUSH2 0x349 JUMP JUMPDEST SWAP1 POP PUSH2 0x3EE DUP3 DUP3 PUSH2 0x3A7 JUMP JUMPDEST SWAP2 SWAP1 POP JUMP JUMPDEST PUSH1 0x0 PUSH8 0xFFFFFFFFFFFFFFFF DUP3 GT ISZERO PUSH2 0x40E JUMPI PUSH2 0x40D PUSH2 0x378 JUMP JUMPDEST JUMPDEST PUSH2 0x417 DUP3 PUSH2 0x367 JUMP JUMPDEST SWAP1 POP PUSH1 0x20 DUP2 ADD SWAP1 POP SWAP2 SWAP1 POP JUMP JUMPDEST DUP3 DUP2 DUP4 CALLDATACOPY PUSH1 0x0 DUP4 DUP4 ADD MSTORE POP POP POP JUMP JUMPDEST PUSH1 0x0 PUSH2 0x446 PUSH2 0x441 DUP5 PUSH2 0x3F3 JUMP JUMPDEST PUSH2 0x3D8 JUMP JUMPDEST SWAP1 POP DUP3 DUP2 MSTORE PUSH1 0x20 DUP2 ADD DUP5 DUP5 DUP5 ADD GT ISZERO PUSH2 0x462 JUMPI PUSH2 0x461 PUSH2 0x362 JUMP JUMPDEST JUMPDEST PUSH2 0x46D DUP5 DUP3 DUP6 PUSH2 0x424 JUMP JUMPDEST POP SWAP4 SWAP3 POP POP POP JUMP JUMPDEST PUSH1 0x0 DUP3 PUSH1 0x1F DUP4 ADD SLT PUSH2 0x48A JUMPI PUSH2 0x489 PUSH2 0x35D JUMP JUMPDEST JUMPDEST DUP2 CALLDATALOAD PUSH2 0x49A DUP5 DUP3 PUSH1 0x20 DUP7 ADD PUSH2 0x433 JUMP JUMPDEST SWAP2 POP POP SWAP3 SWAP2 POP POP JUMP JUMPDEST PUSH1 0x0 PUSH1 0x20 DUP3 DUP5 SUB SLT ISZERO PUSH2 0x4B9 JUMPI PUSH2 0x4B8 PUSH2 0x353 JUMP JUMPDEST JUMPDEST PUSH1 0x0 DUP3 ADD CALLDATALOAD PUSH8 0xFFFFFFFFFFFFFFFF DUP2 GT ISZERO PUSH2 0x4D7 JUMPI PUSH2 0x4D6 PUSH2 0x358 JUMP JUMPDEST JUMPDEST PUSH2 0x4E3 DUP5 DUP3 DUP6 ADD PUSH2 0x475 JUMP JUMPDEST SWAP2 POP POP SWAP3 SWAP2 POP POP JUMP JUMPDEST PUSH1 0x0 PUSH20 0xFFFFFFFFFFFFFFFFFFFFFFFFFFFFFFFFFFFFFFFF DUP3 AND SWAP1 POP SWAP2 SWAP1 POP JUMP JUMPDEST PUSH1 0x0 PUSH2 0x517 DUP3 PUSH2 0x4EC JUMP JUMPDEST SWAP1 POP SWAP2 SWAP1 POP JUMP JUMPDEST PUSH2 0x527 DUP2 PUSH2 0x50C JUMP JUMPDEST DUP3 MSTORE POP POP JUMP JUMPDEST PUSH1 0x0 PUSH1 0x20 DUP3 ADD SWAP1 POP PUSH2 0x542 PUSH1 0x0 DUP4 ADD DUP5 PUSH2 0x51E JUMP JUMPDEST SWAP3 SWAP2 POP POP JUMP JUMPDEST PUSH2 0x551 DUP2 PUSH2 0x50C JUMP JUMPDEST DUP3 MSTORE POP POP JUMP JUMPDEST PUSH1 0x0 DUP2 SWAP1 POP SWAP2 SWAP1 POP JUMP JUMPDEST PUSH2 0x56A DUP2 PUSH2 0x557 JUMP JUMPDEST DUP3 MSTORE POP POP JUMP JUMPDEST PUSH1 0x40 DUP3 ADD PUSH1 0x0 DUP3 ADD MLOAD PUSH2 0x586 PUSH1 0x0 DUP6 ADD DUP3 PUSH2 0x548 JUMP JUMPDEST POP PUSH1 0x20 DUP3 ADD MLOAD PUSH2 0x599 PUSH1 0x20 DUP6 ADD DUP3 PUSH2 0x561 JUMP JUMPDEST POP POP POP POP JUMP JUMPDEST PUSH1 0x0 PUSH1 0x40 DUP3 ADD SWAP1 POP PUSH2 0x5B4 PUSH1 0x0 DUP4 ADD DUP5 PUSH2 0x570 JUMP JUMPDEST SWAP3 SWAP2 POP POP JUMP JUMPDEST PUSH1 0x0 DUP2 MLOAD SWAP1 POP SWAP2 SWAP1 POP JUMP JUMPDEST PUSH1 0x0 DUP2 SWAP1 POP SWAP3 SWAP2 POP POP JUMP JUMPDEST PUSH1 0x0 JUMPDEST DUP4 DUP2 LT ISZERO PUSH2 0x5EE JUMPI DUP1 DUP3 ADD MLOAD DUP2 DUP5 ADD MSTORE PUSH1 0x20 DUP2 ADD SWAP1 POP PUSH2 0x5D3 JUMP JUMPDEST DUP4 DUP2 GT ISZERO PUSH2 0x5FD JUMPI PUSH1 0x0 DUP5 DUP5 ADD MSTORE JUMPDEST POP POP POP POP JUMP JUMPDEST PUSH1 0x0 PUSH2 0x60E DUP3 PUSH2 0x5BA JUMP JUMPDEST PUSH2 0x618 DUP2 DUP6 PUSH2 0x5C5 JUMP JUMPDEST SWAP4 POP PUSH2 0x628 DUP2 DUP6 PUSH1 0x20 DUP7 ADD PUSH2 0x5D0 JUMP JUMPDEST DUP1 DUP5 ADD SWAP2 POP POP SWAP3 SWAP2 POP POP JUMP JUMPDEST PUSH1 0x0 PUSH2 0x640 DUP3 DUP5 PUSH2 0x603 JUMP JUMPDEST SWAP2 POP DUP2 SWAP1 POP SWAP3 SWAP2 POP POP JUMP JUMPDEST PUSH1 0x0 DUP3 DUP3 MSTORE PUSH1 0x20 DUP3 ADD SWAP1 POP SWAP3 SWAP2 POP POP JUMP JUMPDEST PUSH32 0x4E6F7420666F756E640000000000000000000000000000000000000000000000 PUSH1 0x0 DUP3 ADD MSTORE POP JUMP JUMPDEST PUSH1 0x0 PUSH2 0x692 PUSH1 0x9 DUP4 PUSH2 0x64B JUMP JUMPDEST SWAP2 POP PUSH2 0x69D DUP3 PUSH2 0x65C JUMP JUMPDEST PUSH1 0x20 DUP3 ADD SWAP1 POP SWAP2 SWAP1 POP JUMP JUMPDEST PUSH1 0x0 PUSH1 0x20 DUP3 ADD SWAP1 POP DUP2 DUP2 SUB PUSH1 0x0 DUP4 ADD MSTORE PUSH2 0x6C1 DUP2 PUSH2 0x685 JUMP JUMPDEST SWAP1 POP SWAP2 SWAP1 POP JUMP JUMPDEST PUSH32 0x616C72656179206B657900000000000000000000000000000000000000000000 PUSH1 0x0 DUP3 ADD MSTORE POP JUMP JUMPDEST PUSH1 0x0 PUSH2 0x6FE PUSH1 0xA DUP4 PUSH2 0x64B JUMP JUMPDEST SWAP2 POP PUSH2 0x709 DUP3 PUSH2 0x6C8 JUMP JUMPDEST PUSH1 0x20 DUP3 ADD SWAP1 POP SWAP2 SWAP1 POP JUMP JUMPDEST PUSH1 0x0 PUSH1 0x20 DUP3 ADD SWAP1 POP DUP2 DUP2 SUB PUSH1 0x0 DUP4 ADD MSTORE PUSH2 0x72D DUP2 PUSH2 0x6F1 JUMP JUMPDEST SWAP1 POP SWAP2 SWAP1 POP JUMP JUMPDEST PUSH32 0x4E487B7100000000000000000000000000000000000000000000000000000000 PUSH1 0x0 MSTORE PUSH1 0x11 PUSH1 0x4 MSTORE PUSH1 0x24 PUSH1 0x0 REVERT JUMPDEST PUSH1 0x0 PUSH2 0x76E DUP3 PUSH2 0x557 JUMP JUMPDEST SWAP2 POP PUSH32 0xFFFFFFFFFFFFFFFFFFFFFFFFFFFFFFFFFFFFFFFFFFFFFFFFFFFFFFFFFFFFFFFF DUP3 EQ ISZERO PUSH2 0x7A1 JUMPI PUSH2 0x7A0 PUSH2 0x734 JUMP JUMPDEST JUMPDEST PUSH1 0x1 DUP3 ADD SWAP1 POP SWAP2 SWAP1 POP JUMP INVALID LOG2 PUSH5 0x6970667358 0x22 SLT KECCAK256 PUSH5 0xCB96F582FD LOG4 0xAB 0xE0 0xD 0xA5 KECCAK256 SELFBALANCE 0xAC 0xA5 OR SAR JUMPI PUSH7 0xC35687A5A187A8 0x2E DUP15 0xA7 PUSH11 0xE97C64736F6C634300080A STOP CALLER "
		},
		"gasEstimates": {
			"creation": {
				"codeDepositCost": "403600",
				"executionCost": "22549",
				"totalCost": "426149"
			},
			"external": {
				"addName(string)": "infinite",
				"plusNumber()": "infinite",
				"viewName(string)": "infinite"
			},
			"internal": {
				"_viewAddress()": "22"
			}
		},
		"methodIdentifiers": {
			"addName(string)": "11456b47",
			"plusNumber()": "d60d5a44",
			"viewName(string)": "0909f9fe"
		}
	},
	"abi": [
		{
			"inputs": [
				{
					"internalType": "string",
					"name": "_name",
					"type": "string"
				}
			],
			"name": "addName",
			"outputs": [],
			"stateMutability": "nonpayable",
			"type": "function"
		},
		{
			"inputs": [],
			"name": "plusNumber",
			"outputs": [
				{
					"components": [
						{
							"internalType": "address",
							"name": "_address",
							"type": "address"
						},
						{
							"internalType": "uint256",
							"name": "_number",
							"type": "uint256"
						}
					],
					"internalType": "struct second.User",
					"name": "",
					"type": "tuple"
				}
			],
			"stateMutability": "nonpayable",
			"type": "function"
		},
		{
			"inputs": [
				{
					"internalType": "string",
					"name": "_name",
					"type": "string"
				}
			],
			"name": "viewName",
			"outputs": [
				{
					"internalType": "address",
					"name": "",
					"type": "address"
				}
			],
			"stateMutability": "view",
			"type": "function"
		}
	]
}